{
  "contractName": "Crowdsale",
  "abi": [
    {
      "constant": true,
      "inputs": [],
      "name": "discountInPreSale",
      "outputs": [
        {
          "name": "",
          "type": "uint256"
        }
      ],
      "payable": false,
      "stateMutability": "view",
      "type": "function"
    },
    {
      "constant": true,
      "inputs": [],
      "name": "tokensForSale",
      "outputs": [
        {
          "name": "",
          "type": "uint256"
        }
      ],
      "payable": false,
      "stateMutability": "view",
      "type": "function"
    },
    {
      "constant": true,
      "inputs": [],
      "name": "minimumUsdCentsInPublicSale",
      "outputs": [
        {
          "name": "",
          "type": "uint256"
        }
      ],
      "payable": false,
      "stateMutability": "view",
      "type": "function"
    },
    {
      "constant": true,
      "inputs": [],
      "name": "wallet",
      "outputs": [
        {
          "name": "",
          "type": "address"
        }
      ],
      "payable": false,
      "stateMutability": "view",
      "type": "function"
    },
    {
      "constant": true,
      "inputs": [],
      "name": "crowdSaleStarted",
      "outputs": [
        {
          "name": "",
          "type": "bool"
        }
      ],
      "payable": false,
      "stateMutability": "view",
      "type": "function"
    },
    {
      "constant": false,
      "inputs": [],
      "name": "acceptOwnership",
      "outputs": [],
      "payable": false,
      "stateMutability": "nonpayable",
      "type": "function"
    },
    {
      "constant": true,
      "inputs": [],
      "name": "discountInPublicSale",
      "outputs": [
        {
          "name": "",
          "type": "uint256"
        }
      ],
      "payable": false,
      "stateMutability": "view",
      "type": "function"
    },
    {
      "constant": true,
      "inputs": [],
      "name": "owner",
      "outputs": [
        {
          "name": "",
          "type": "address"
        }
      ],
      "payable": false,
      "stateMutability": "view",
      "type": "function"
    },
    {
      "constant": true,
      "inputs": [],
      "name": "minimumUsdCentsInPrivateSale",
      "outputs": [
        {
          "name": "",
          "type": "uint256"
        }
      ],
      "payable": false,
      "stateMutability": "view",
      "type": "function"
    },
    {
      "constant": true,
      "inputs": [],
      "name": "softCap",
      "outputs": [
        {
          "name": "",
          "type": "uint256"
        }
      ],
      "payable": false,
      "stateMutability": "view",
      "type": "function"
    },
    {
      "constant": true,
      "inputs": [],
      "name": "MaximumUsdCentsInPrivateSale",
      "outputs": [
        {
          "name": "",
          "type": "uint256"
        }
      ],
      "payable": false,
      "stateMutability": "view",
      "type": "function"
    },
    {
      "constant": true,
      "inputs": [],
      "name": "publicSaleTokenSold",
      "outputs": [
        {
          "name": "",
          "type": "uint256"
        }
      ],
      "payable": false,
      "stateMutability": "view",
      "type": "function"
    },
    {
      "constant": true,
      "inputs": [],
      "name": "Paused",
      "outputs": [
        {
          "name": "",
          "type": "bool"
        }
      ],
      "payable": false,
      "stateMutability": "view",
      "type": "function"
    },
    {
      "constant": true,
      "inputs": [],
      "name": "preSaleTokenSold",
      "outputs": [
        {
          "name": "",
          "type": "uint256"
        }
      ],
      "payable": false,
      "stateMutability": "view",
      "type": "function"
    },
    {
      "constant": true,
      "inputs": [],
      "name": "directInvestorsTokenSold",
      "outputs": [
        {
          "name": "",
          "type": "uint256"
        }
      ],
      "payable": false,
      "stateMutability": "view",
      "type": "function"
    },
    {
      "constant": true,
      "inputs": [],
      "name": "minimumUsdCentsInPreSale",
      "outputs": [
        {
          "name": "",
          "type": "uint256"
        }
      ],
      "payable": false,
      "stateMutability": "view",
      "type": "function"
    },
    {
      "constant": true,
      "inputs": [],
      "name": "totalRaisedInCents",
      "outputs": [
        {
          "name": "",
          "type": "uint256"
        }
      ],
      "payable": false,
      "stateMutability": "view",
      "type": "function"
    },
    {
      "constant": true,
      "inputs": [],
      "name": "newOwner",
      "outputs": [
        {
          "name": "",
          "type": "address"
        }
      ],
      "payable": false,
      "stateMutability": "view",
      "type": "function"
    },
    {
      "constant": true,
      "inputs": [],
      "name": "privateSaletokenSold",
      "outputs": [
        {
          "name": "",
          "type": "uint256"
        }
      ],
      "payable": false,
      "stateMutability": "view",
      "type": "function"
    },
    {
      "constant": true,
      "inputs": [],
      "name": "MaximumUsdCentsInPublicSale",
      "outputs": [
        {
          "name": "",
          "type": "uint256"
        }
      ],
      "payable": false,
      "stateMutability": "view",
      "type": "function"
    },
    {
      "constant": true,
      "inputs": [],
      "name": "updateTime",
      "outputs": [
        {
          "name": "",
          "type": "uint256"
        }
      ],
      "payable": false,
      "stateMutability": "view",
      "type": "function"
    },
    {
      "constant": true,
      "inputs": [],
      "name": "MaximumUsdCentsInPreSale",
      "outputs": [
        {
          "name": "",
          "type": "uint256"
        }
      ],
      "payable": false,
      "stateMutability": "view",
      "type": "function"
    },
    {
      "constant": true,
      "inputs": [],
      "name": "tokensPerDollarInPreSale",
      "outputs": [
        {
          "name": "",
          "type": "uint256"
        }
      ],
      "payable": false,
      "stateMutability": "view",
      "type": "function"
    },
    {
      "constant": true,
      "inputs": [],
      "name": "tokensPerDollarInPrivateSale",
      "outputs": [
        {
          "name": "",
          "type": "uint256"
        }
      ],
      "payable": false,
      "stateMutability": "view",
      "type": "function"
    },
    {
      "constant": false,
      "inputs": [
        {
          "name": "_newOwner",
          "type": "address"
        }
      ],
      "name": "transferOwnership",
      "outputs": [],
      "payable": false,
      "stateMutability": "nonpayable",
      "type": "function"
    },
    {
      "constant": true,
      "inputs": [],
      "name": "discountInPrivateSale",
      "outputs": [
        {
          "name": "",
          "type": "uint256"
        }
      ],
      "payable": false,
      "stateMutability": "view",
      "type": "function"
    },
    {
      "constant": true,
      "inputs": [],
      "name": "hardCap",
      "outputs": [
        {
          "name": "",
          "type": "uint256"
        }
      ],
      "payable": false,
      "stateMutability": "view",
      "type": "function"
    },
    {
      "constant": true,
      "inputs": [],
      "name": "token",
      "outputs": [
        {
          "name": "",
          "type": "address"
        }
      ],
      "payable": false,
      "stateMutability": "view",
      "type": "function"
    },
    {
      "constant": true,
      "inputs": [],
      "name": "tokensPerDollarInPublicSale",
      "outputs": [
        {
          "name": "",
          "type": "uint256"
        }
      ],
      "payable": false,
      "stateMutability": "view",
      "type": "function"
    },
    {
      "constant": true,
      "inputs": [],
      "name": "ethPrice",
      "outputs": [
        {
          "name": "",
          "type": "uint256"
        }
      ],
      "payable": false,
      "stateMutability": "view",
      "type": "function"
    },
    {
      "inputs": [
        {
          "name": "_newOwner",
          "type": "address"
        },
        {
          "name": "_wallet",
          "type": "address"
        },
        {
          "name": "_token",
          "type": "address"
        },
        {
          "name": "_ethPriceInCents",
          "type": "uint256"
        }
      ],
      "payable": false,
      "stateMutability": "nonpayable",
      "type": "constructor"
    },
    {
      "payable": true,
      "stateMutability": "payable",
      "type": "fallback"
    },
    {
      "anonymous": false,
      "inputs": [
        {
          "indexed": false,
          "name": "nextStep",
          "type": "string"
        }
      ],
      "name": "LogConstructorInitiated",
      "type": "event"
    },
    {
      "anonymous": false,
      "inputs": [
        {
          "indexed": false,
          "name": "description",
          "type": "string"
        }
      ],
      "name": "newOraclizeQuery",
      "type": "event"
    },
    {
      "anonymous": false,
      "inputs": [
        {
          "indexed": false,
          "name": "myid",
          "type": "bytes32"
        },
        {
          "indexed": false,
          "name": "price",
          "type": "string"
        },
        {
          "indexed": false,
          "name": "proof",
          "type": "bytes"
        }
      ],
      "name": "newPriceTicker",
      "type": "event"
    },
    {
      "anonymous": false,
      "inputs": [
        {
          "indexed": true,
          "name": "purchaser",
          "type": "address"
        },
        {
          "indexed": true,
          "name": "beneficiary",
          "type": "address"
        },
        {
          "indexed": false,
          "name": "value",
          "type": "uint256"
        },
        {
          "indexed": false,
          "name": "amount",
          "type": "uint256"
        }
      ],
      "name": "TokenPurchase",
      "type": "event"
    },
    {
      "anonymous": false,
      "inputs": [
        {
          "indexed": true,
          "name": "from",
          "type": "address"
        },
        {
          "indexed": true,
          "name": "_to",
          "type": "address"
        }
      ],
      "name": "OwnershipTransferred",
      "type": "event"
    },
    {
      "constant": false,
      "inputs": [
        {
          "name": "myid",
          "type": "bytes32"
        },
        {
          "name": "result",
          "type": "string"
        }
      ],
      "name": "__callback",
      "outputs": [],
      "payable": false,
      "stateMutability": "nonpayable",
      "type": "function"
    },
    {
      "constant": false,
      "inputs": [
        {
          "name": "myid",
          "type": "bytes32"
        },
        {
          "name": "result",
          "type": "string"
        },
        {
          "name": "proof",
          "type": "bytes"
        }
      ],
      "name": "__callback",
      "outputs": [],
      "payable": false,
      "stateMutability": "nonpayable",
      "type": "function"
    },
    {
      "constant": false,
      "inputs": [],
      "name": "update",
      "outputs": [],
      "payable": false,
      "stateMutability": "nonpayable",
      "type": "function"
    },
    {
      "constant": false,
      "inputs": [
        {
          "name": "_updateTime",
          "type": "uint256"
        }
      ],
      "name": "updatePeriodically",
      "outputs": [],
      "payable": false,
      "stateMutability": "nonpayable",
      "type": "function"
    },
    {
      "constant": false,
      "inputs": [],
      "name": "pause",
      "outputs": [],
      "payable": false,
      "stateMutability": "nonpayable",
      "type": "function"
    },
    {
      "constant": false,
      "inputs": [],
      "name": "restartSale",
      "outputs": [],
      "payable": false,
      "stateMutability": "nonpayable",
      "type": "function"
    },
    {
      "constant": false,
      "inputs": [],
      "name": "startPrivateSale",
      "outputs": [],
      "payable": false,
      "stateMutability": "nonpayable",
      "type": "function"
    },
    {
      "constant": false,
      "inputs": [],
      "name": "endPrivateSale",
      "outputs": [],
      "payable": false,
      "stateMutability": "nonpayable",
      "type": "function"
    },
    {
      "constant": false,
      "inputs": [],
      "name": "startPreSale",
      "outputs": [],
      "payable": false,
      "stateMutability": "nonpayable",
      "type": "function"
    },
    {
      "constant": false,
      "inputs": [],
      "name": "endPreSale",
      "outputs": [],
      "payable": false,
      "stateMutability": "nonpayable",
      "type": "function"
    },
    {
      "constant": false,
      "inputs": [],
      "name": "startPublicSale",
      "outputs": [],
      "payable": false,
      "stateMutability": "nonpayable",
      "type": "function"
    },
    {
      "constant": false,
      "inputs": [],
      "name": "endPublicSale",
      "outputs": [],
      "payable": false,
      "stateMutability": "nonpayable",
      "type": "function"
    },
    {
      "constant": true,
      "inputs": [],
      "name": "getStage",
      "outputs": [
        {
          "name": "",
          "type": "string"
        }
      ],
      "payable": false,
      "stateMutability": "view",
      "type": "function"
    },
    {
      "constant": false,
      "inputs": [
        {
          "name": "_beneficiary",
          "type": "address"
        },
        {
          "name": "_noOfTokens",
          "type": "uint256"
        },
        {
          "name": "_usdCents",
          "type": "uint256"
        }
      ],
      "name": "sendDirectInvestorTokens",
      "outputs": [],
      "payable": false,
      "stateMutability": "nonpayable",
      "type": "function"
    },
    {
      "constant": false,
      "inputs": [
        {
          "name": "_ethPriceInCents",
          "type": "uint256"
        }
      ],
      "name": "setEthPriceInCents",
      "outputs": [
        {
          "name": "",
          "type": "bool"
        }
      ],
      "payable": false,
      "stateMutability": "nonpayable",
      "type": "function"
    },
    {
      "constant": false,
      "inputs": [
        {
          "name": "_beneficiary",
          "type": "address"
        }
      ],
      "name": "buyTokens",
      "outputs": [],
      "payable": true,
      "stateMutability": "payable",
      "type": "function"
    },
    {
      "constant": true,
      "inputs": [],
      "name": "discountInCurrentSale",
      "outputs": [
        {
          "name": "",
          "type": "uint256"
        }
      ],
      "payable": false,
      "stateMutability": "view",
      "type": "function"
    },
    {
      "constant": true,
      "inputs": [
        {
          "name": "_usdCents",
          "type": "uint256"
        }
      ],
      "name": "tokenAmount",
      "outputs": [
        {
          "name": "",
          "type": "uint256"
        }
      ],
      "payable": false,
      "stateMutability": "view",
      "type": "function"
    },
    {
      "constant": false,
      "inputs": [],
      "name": "burnTokens",
      "outputs": [],
      "payable": false,
      "stateMutability": "nonpayable",
      "type": "function"
    },
    {
      "constant": false,
      "inputs": [],
      "name": "finalizeSale",
      "outputs": [],
      "payable": false,
      "stateMutability": "nonpayable",
      "type": "function"
    },
    {
      "constant": true,
      "inputs": [],
      "name": "isSoftCapReached",
      "outputs": [
        {
          "name": "",
          "type": "bool"
        }
      ],
      "payable": false,
      "stateMutability": "view",
      "type": "function"
    },
    {
      "constant": true,
      "inputs": [],
      "name": "minimumInvestmentInCurrentSale",
      "outputs": [
        {
          "name": "",
          "type": "uint256"
        }
      ],
      "payable": false,
      "stateMutability": "view",
      "type": "function"
    },
    {
      "constant": false,
      "inputs": [
        {
          "name": "_privateSale",
          "type": "uint256"
        },
        {
          "name": "_preSale",
          "type": "uint256"
        },
        {
          "name": "_publicSale",
          "type": "uint256"
        }
      ],
      "name": "setPriceforAllPhases",
      "outputs": [],
      "payable": false,
      "stateMutability": "nonpayable",
      "type": "function"
    },
    {
      "constant": true,
      "inputs": [],
      "name": "maximumInvestmentInCurrentSale",
      "outputs": [
        {
          "name": "",
          "type": "uint256"
        }
      ],
      "payable": false,
      "stateMutability": "view",
      "type": "function"
    }
  ],
  "bytecode": "0x608060405260006009819055636b49d200600b556311e1a300600c556b01997453c4de3f7a4f000000600d55600e819055600f8190556010819055601181905568022b1c8c1227a000006012556801158e460913d0000060135568018c8200ec179880006014556207a1206016819055630bebc20060178190556018919091556019819055611388601a55601b556032601c55601e601d81905555601f805460ff191690553480156100b057600080fd5b50604051608080620033f1833981016040908152815160208301519183015160609093015160008054600160a060020a031916600160a060020a03808516919091179091559193918316151561010557600080fd5b600160a060020a038216151561011a57600080fd5b6000811161012757600080fd5b60158054600160a060020a0319908116600160a060020a0395861617909155600080548216958516959095178555600a805490911692909316919091179091556008556021805460ff1916905561326c9081906200018590396000f30060806040526004361061026e5763ffffffff60e060020a600035041663044f9afe811461029557806308003f78146102c15780630c1c972a146102d65780631229a137146102eb57806312aef8c31461031257806327dc297e14610327578063338dbf591461038557806338bbfa501461039a5780633c86eac31461043657806345ab331e1461044b57806351baaf9714610463578063521eb2731461047857806355dd574c146104a957806358a687ec146104be5780636cea50a1146104d357806374711285146104e857806376bc8629146104fd57806379ba50971461051257806380d32f8514610527578063824283231461053c5780638456cb591461055457806386ef4ae9146105695780638da5cb5b1461057e5780638e5cf6c914610593578063906a26e0146105a85780639450ecd0146105bd57806396e16f78146105d25780639948bae8146105e75780639e87fac8146105fc578063a2e6204514610611578063ac0c518d14610626578063ac73fed81461063b578063b82a849b14610650578063bc95070814610665578063c7d17fd11461067a578063cd8902621461068f578063d4ee1d90146106b6578063d80f6d3d146106cb578063d8368218146106e0578063dc555090146106f5578063e480ac8a1461070a578063e6a23c3d1461071f578063ec8ac4d814610734578063ee889ed014610748578063ee949b5d1461075d578063f2c5950114610772578063f2fde38b14610787578063f36c9562146107a8578063faeeb1a5146107c6578063fb86a404146107db578063fc0c546a146107f0578063fcaa766414610805578063fe3fa8de1461088f578063ff186b2e146108a4575b600054600160a060020a0316331461028e57610289336108b9565b610293565b600080fd5b005b3480156102a157600080fd5b506102ad6004356109da565b604080519115158252519081900360200190f35b3480156102cd57600080fd5b506102936109fb565b3480156102e257600080fd5b50610293610add565b3480156102f757600080fd5b50610300610b28565b60408051918252519081900360200190f35b34801561031e57600080fd5b50610300610b2e565b34801561033357600080fd5b5060408051602060046024803582810135601f8101859004850286018501909652858552610293958335953695604494919390910191908190840183828082843750949750610b349650505050505050565b34801561039157600080fd5b50610293610b5d565b3480156103a657600080fd5b5060408051602060046024803582810135601f810185900485028601850190965285855261029395833595369560449491939091019190819084018382808284375050604080516020601f89358b018035918201839004830284018301909452808352979a999881019791965091820194509250829150840183828082843750949750610ba69650505050505050565b34801561044257600080fd5b50610300610cfe565b34801561045757600080fd5b50610300600435610d65565b34801561046f57600080fd5b50610300610e2a565b34801561048457600080fd5b5061048d610e30565b60408051600160a060020a039092168252519081900360200190f35b3480156104b557600080fd5b50610293610e3f565b3480156104ca57600080fd5b50610293610e87565b3480156104df57600080fd5b506102ad610f47565b3480156104f457600080fd5b50610293610f50565b34801561050957600080fd5b50610300610fb7565b34801561051e57600080fd5b5061029361101f565b34801561053357600080fd5b506102ad61109a565b34801561054857600080fd5b506102936004356110b9565b34801561056057600080fd5b506102936112cd565b34801561057557600080fd5b5061030061134d565b34801561058a57600080fd5b5061048d611353565b34801561059f57600080fd5b50610300611362565b3480156105b457600080fd5b50610300611368565b3480156105c957600080fd5b5061030061136e565b3480156105de57600080fd5b506103006113d6565b3480156105f357600080fd5b506103006113dc565b34801561060857600080fd5b506102ad6113e2565b34801561061d57600080fd5b506102936113f1565b34801561063257600080fd5b5061030061160d565b34801561064757600080fd5b50610300611613565b34801561065c57600080fd5b50610300611619565b34801561067157600080fd5b5061030061161f565b34801561068657600080fd5b50610293611625565b34801561069b57600080fd5b50610293600160a060020a036004351660243560443561166d565b3480156106c257600080fd5b5061048d61185f565b3480156106d757600080fd5b5061030061186e565b3480156106ec57600080fd5b50610300611874565b34801561070157600080fd5b5061030061187a565b34801561071657600080fd5b50610300611880565b34801561072b57600080fd5b50610293611886565b610293600160a060020a03600435166108b9565b34801561075457600080fd5b506102936118ce565b34801561076957600080fd5b50610300611916565b34801561077e57600080fd5b5061030061191c565b34801561079357600080fd5b50610293600160a060020a0360043516611922565b3480156107b457600080fd5b5061029360043560243560443561195b565b3480156107d257600080fd5b5061030061198d565b3480156107e757600080fd5b50610300611993565b3480156107fc57600080fd5b5061048d611999565b34801561081157600080fd5b5061081a6119a8565b6040805160208082528351818301528351919283929083019185019080838360005b8381101561085457818101518382015260200161083c565b50505050905090810190601f1680156108815780820380516001836020036101000a031916815260200191505b509250505060405180910390f35b34801561089b57600080fd5b50610300611c42565b3480156108b057600080fd5b50610300611c48565b601f546000908190819060ff1615156108d157600080fd5b60215462010000900460ff161515600114156108ec57600080fd5b349250600083116108fc57600080fd5b610929670de0b6b3a764000061091d60085486611c4e90919063ffffffff16565b9063ffffffff611c7316565b915061093482611c94565b61093d82610d65565b905061094882611d3e565b6109528482611d64565b601554604051600160a060020a03909116903480156108fc02916000818181858888f1935050505015801561098b573d6000803e3d6000fd5b5060408051848152602081018390528151600160a060020a0387169233927f623b3804fa71d67900d064613da8f94b9617215ee90799290593e1745087ad18929081900390910190a350505050565b60008054600160a060020a031633146109f257600080fd5b50600855600190565b60008054600160a060020a03163314610a1357600080fd5b600760215460ff166007811115610a2657fe5b14610a3057600080fd5b50600a54604080517f095ea7b30000000000000000000000000000000000000000000000000000000081523060048201526000602482018190529151600160a060020a0390931692839263095ea7b392604480820193602093909283900390910190829087803b158015610aa357600080fd5b505af1158015610ab7573d6000803e3d6000fd5b505050506040513d6020811015610acd57600080fd5b50511515610ada57600080fd5b50565b600054600160a060020a03163314610af457600080fd5b600560215460ff166007811115610b0757fe5b14610b1157600080fd5b602180546006919060ff19166001835b0217905550565b601d5481565b600d5481565b604080516000815260208101909152610b509083908390610ba6565b5050600480546001019055565b600054600160a060020a03163314610b7457600080fd5b601f5460ff1615610b8457600080fd5b601f8054600160ff199182168117909255602180546002939192169083610b21565b610bae611d6e565b600160a060020a03163314610bc257600080fd5b610bcd826002611f63565b6008819055507fbbb1d35a5e7de79377b7af9c783b4a997ea7f2f218f68ff8d6ad60880279a7c48383836040518084600019166000191681526020018060200180602001838103835285818151815260200191508051906020019080838360005b83811015610c46578181015183820152602001610c2e565b50505050905090810190601f168015610c735780820380516001836020036101000a031916815260200191505b50838103825284518152845160209182019186019080838360005b83811015610ca6578181015183820152602001610c8e565b50505050905090810190601f168015610cd35780820380516001836020036101000a031916815260200191505b509550505050505060405180910390a160006009541115610cf957610cf960095461211d565b505050565b6000600260215460ff166007811115610d1357fe5b1415610d225750601654610d62565b600460215460ff166007811115610d3557fe5b1415610d445750601854610d62565b600660215460ff166007811115610d5757fe5b1415610d625750601a545b90565b601f54600090819060ff161515610d7b57600080fd5b600260215460ff166007811115610d8e57fe5b1415610dbf57601254610db890610dac85606463ffffffff611c7316565b9063ffffffff611c4e16565b9050610e24565b600460215460ff166007811115610dd257fe5b1415610df057601454610db890610dac85606463ffffffff611c7316565b600660215460ff166007811115610e0357fe5b1415610e2457601354610e2190610dac85606463ffffffff611c7316565b90505b92915050565b601a5481565b601554600160a060020a031681565b600054600160a060020a03163314610e5657600080fd5b600360215460ff166007811115610e6957fe5b14610e7357600080fd5b602180546004919060ff1916600183610b21565b600054600160a060020a03163314610e9e57600080fd5b600760215460ff166007811115610eb157fe5b14610ebb57600080fd5b600a60009054906101000a9004600160a060020a0316600160a060020a0316634bb278f36040518163ffffffff1660e060020a028152600401602060405180830381600087803b158015610f0e57600080fd5b505af1158015610f22573d6000803e3d6000fd5b505050506040513d6020811015610f3857600080fd5b50511515610f4557600080fd5b565b601f5460ff1681565b600054600160a060020a03163314610f6757600080fd5b600160215460ff166007811115610f7a57fe5b14610f8457600080fd5b6021805460ff610100820416919060ff19166001836007811115610fa457fe5b02179055506021805462ff000019169055565b6000600260215460ff166007811115610fcc57fe5b1415610fdb5750601754610d62565b600460215460ff166007811115610fee57fe5b1415610ffd5750601954610d62565b600660215460ff16600781111561101057fe5b1415610d625750601b54610d62565b600154600160a060020a0316331461103657600080fd5b60015460008054604051600160a060020a0393841693909116917f8be0079c531659141344cd1fd0a4f28419497f9722a3daafe3b4186f6b6457e091a36001805460008054600160a060020a0319908116600160a060020a03841617909155169055565b6000600c546020541015156110b157506001610d62565b506000610d62565b600054600160a060020a031633146110d057600080fd5b6009819055604080518082019091526003815260ea60020a6215549302602082015230319061110290620249f0612312565b11156111a757604080516020808252604b908201527f4f7261636c697a6520717565727920776173204e4f542073656e742c20706c65818301527f6173652061646420736f6d652045544820746f20636f76657220666f7220746860608201527f6520717565727920666565000000000000000000000000000000000000000000608082015290516000805160206132218339815191529181900360a00190a1610ada565b6040805160208082526035908201527f4f7261636c697a65207175657279207761732073656e742c207374616e64696e818301527f6720627920666f722074686520616e737765722e2e0000000000000000000000606082015290516000805160206132218339815191529181900360800190a16112c960408051908101604052806003815260200160ea60020a6215549302815250608060405190810160405280604c81526020017f6a736f6e2868747470733a2f2f6170692e6b72616b656e2e636f6d2f302f707581526020017f626c69632f5469636b65723f706169723d455448555344292e726573756c742e81526020017f584554485a5553442e632e300000000000000000000000000000000000000000815250620249f0612583565b5050565b600054600160a060020a031633146112e457600080fd5b60215462010000900460ff16156112fa57600080fd5b601f5460ff16151560011461130e57600080fd5b6021805460ff8116919061ff00191661010083600781111561132c57fe5b021790555060218054600160ff199091161762ff0000191662010000179055565b601e5481565b600054600160a060020a031681565b60165481565b600c5481565b6000600260215460ff16600781111561138357fe5b14156113925750601c54610d62565b600460215460ff1660078111156113a557fe5b14156113b45750601d54610d62565b600660215460ff1660078111156113c757fe5b1415610d625750601e54610d62565b60175481565b60105481565b60215462010000900460ff1681565b600054600160a060020a0316331461140857600080fd5b600060095411156114195760006009555b604080518082019091526003815260ea60020a6215549302602082015230319061144690620249f0612312565b11156114eb57604080516020808252604b908201527f4f7261636c697a6520717565727920776173204e4f542073656e742c20706c65818301527f6173652061646420736f6d652045544820746f20636f76657220666f7220746860608201527f6520717565727920666565000000000000000000000000000000000000000000608082015290516000805160206132218339815191529181900360a00190a1610f45565b6040805160208082526035908201527f4f7261636c697a65207175657279207761732073656e742c207374616e64696e818301527f6720627920666f722074686520616e737765722e2e0000000000000000000000606082015290516000805160206132218339815191529181900360800190a1610ada60408051908101604052806003815260200160ea60020a6215549302815250608060405190810160405280604c81526020017f6a736f6e2868747470733a2f2f6170692e6b72616b656e2e636f6d2f302f707581526020017f626c69632f5469636b65723f706169723d455448555344292e726573756c742e81526020017f584554485a5553442e632e300000000000000000000000000000000000000000815250620249f0612583565b600f5481565b60115481565b60185481565b60205481565b600054600160a060020a0316331461163c57600080fd5b600660215460ff16600781111561164f57fe5b1461165957600080fd5b602180546007919060ff1916600183610b21565b601f5460009060ff16151561168157600080fd5b600054600160a060020a0316331461169857600080fd5b600160a060020a03841615156116ad57600080fd5b60215462010000900460ff161515600114156116c857600080fd5b6020546116db908363ffffffff61298816565b6020819055600b5410156116ee57600080fd5b50601154670de0b6b3a764000083029061170e908263ffffffff61298816565b601181905550600d5461174660105461173a600f5461173a600e5460115461298890919063ffffffff16565b9063ffffffff61298816565b111561175157600080fd5b600a54604080517fa51a8682000000000000000000000000000000000000000000000000000000008152600160a060020a038781166004830152602482018590529151919092169163a51a86829160448083019260209291908290030181600087803b1580156117c057600080fd5b505af11580156117d4573d6000803e3d6000fd5b505050506040513d60208110156117ea57600080fd5b5051151561185957604080517f08c379a000000000000000000000000000000000000000000000000000000000815260206004820152600d60248201527f7472616e73666572206661696c00000000000000000000000000000000000000604482015290519081900360640190fd5b50505050565b600154600160a060020a031681565b600e5481565b601b5481565b60095481565b60195481565b600054600160a060020a0316331461189d57600080fd5b600260215460ff1660078111156118b057fe5b146118ba57600080fd5b602180546003919060ff1916600183610b21565b600054600160a060020a031633146118e557600080fd5b600460215460ff1660078111156118f857fe5b1461190257600080fd5b602180546005919060ff1916600183610b21565b60145481565b60125481565b600054600160a060020a0316331461193957600080fd5b60018054600160a060020a031916600160a060020a0392909216919091179055565b600054600160a060020a0316331461197257600080fd5b670de0b6b3a764000092830260125590820260145502601355565b601c5481565b600b5481565b600a54600160a060020a031681565b6060600260215460ff1660078111156119bd57fe5b14156119fd575060408051808201909152601281527f507269766174652053616c6520537461727400000000000000000000000000006020820152610d62565b600360215460ff166007811115611a1057fe5b1415611a50575060408051808201909152601081527f507269766174652053616c6520456e64000000000000000000000000000000006020820152610d62565b600460215460ff166007811115611a6357fe5b1415611aa3575060408051808201909152600e81527f5072652053616c652053746172740000000000000000000000000000000000006020820152610d62565b600560215460ff166007811115611ab657fe5b1415611af6575060408051808201909152600c81527f5072652053616c6520456e6400000000000000000000000000000000000000006020820152610d62565b600660215460ff166007811115611b0957fe5b1415611b49575060408051808201909152601181527f5075626c69632053616c652053746172740000000000000000000000000000006020820152610d62565b600760215460ff166007811115611b5c57fe5b1415611b9c575060408051808201909152600f81527f5075626c69632053616c6520456e6400000000000000000000000000000000006020820152610d62565b600160215460ff166007811115611baf57fe5b1415611bef575060408051808201909152600681527f70617573656400000000000000000000000000000000000000000000000000006020820152610d62565b600060215460ff166007811115611c0257fe5b1415610d62575060408051808201909152601581527f43726f776453616c65204e6f74205374617274656400000000000000000000006020820152610d62565b60135481565b60085481565b818102821580611c685750818382811515611c6557fe5b04145b1515610e2457600080fd5b6000808211611c8157600080fd5b8183811515611c8c57fe5b049392505050565b600260215460ff166007811115611ca757fe5b1415611cd1576016548110158015611cc157506017548111155b1515611ccc57600080fd5b610ada565b600460215460ff166007811115611ce457fe5b1415611d06576018548110158015611cc15750601954811115611ccc57600080fd5b600660215460ff166007811115611d1957fe5b1415610ada57601a548110158015611d335750601b548111155b1515610ada57600080fd5b602054611d51908263ffffffff61298816565b6020819055600b541015610ada57600080fd5b6112c98282612998565b600254600090600160a060020a03161580611d9b5750600254611d9990600160a060020a0316612a3e565b155b15611dac57611daa6000612a42565b505b600260009054906101000a9004600160a060020a0316600160a060020a03166338cc48316040518163ffffffff1660e060020a028152600401602060405180830381600087803b158015611dff57600080fd5b505af1158015611e13573d6000803e3d6000fd5b505050506040513d6020811015611e2957600080fd5b5051600354600160a060020a03908116911614611edf57600260009054906101000a9004600160a060020a0316600160a060020a03166338cc48316040518163ffffffff1660e060020a028152600401602060405180830381600087803b158015611e9357600080fd5b505af1158015611ea7573d6000803e3d6000fd5b505050506040513d6020811015611ebd57600080fd5b505160038054600160a060020a031916600160a060020a039092169190911790555b600360009054906101000a9004600160a060020a0316600160a060020a031663c281d19e6040518163ffffffff1660e060020a028152600401602060405180830381600087803b158015611f3257600080fd5b505af1158015611f46573d6000803e3d6000fd5b505050506040513d6020811015611f5c57600080fd5b5051905090565b6000828180805b83518110156121005783517f300000000000000000000000000000000000000000000000000000000000000090859083908110611fa357fe5b90602001015160f860020a900460f860020a027effffffffffffffffffffffffffffffffffffffffffffffffffffffffffffff191610158015612049575083517f39000000000000000000000000000000000000000000000000000000000000009085908390811061201157fe5b90602001015160f860020a900460f860020a027effffffffffffffffffffffffffffffffffffffffffffffffffffffffffffff191611155b156120a25781156120685785151561206057612100565b600019909501945b600a830292506030848281518110151561207e57fe5b90602001015160f860020a900460f860020a0260f860020a900403830192506120f8565b83818151811015156120b057fe5b90602001015160f860020a900460f860020a027effffffffffffffffffffffffffffffffffffffffffffffffffffffffffffff1916602e60f860020a0214156120f857600191505b600101611f6a565b60008611156121125785600a0a830292505b509095945050505050565b604080518082019091526003815260ea60020a6215549302602082015230319061214a90620249f0612312565b11156121ef57604080516020808252604b908201527f4f7261636c697a6520717565727920776173204e4f542073656e742c20706c65818301527f6173652061646420736f6d652045544820746f20636f76657220666f7220746860608201527f6520717565727920666565000000000000000000000000000000000000000000608082015290516000805160206132218339815191529181900360a00190a1610ada565b6040805160208082526035908201527f4f7261636c697a65207175657279207761732073656e742c207374616e64696e818301527f6720627920666f722074686520616e737765722e2e0000000000000000000000606082015290516000805160206132218339815191529181900360800190a16112c98160408051908101604052806003815260200160ea60020a6215549302815250608060405190810160405280604c81526020017f6a736f6e2868747470733a2f2f6170692e6b72616b656e2e636f6d2f302f707581526020017f626c69632f5469636b65723f706169723d455448555344292e726573756c742e81526020017f584554485a5553442e632e300000000000000000000000000000000000000000815250620249f0612a4c565b600254600090600160a060020a0316158061233f575060025461233d90600160a060020a0316612a3e565b155b156123505761234e6000612a42565b505b600260009054906101000a9004600160a060020a0316600160a060020a03166338cc48316040518163ffffffff1660e060020a028152600401602060405180830381600087803b1580156123a357600080fd5b505af11580156123b7573d6000803e3d6000fd5b505050506040513d60208110156123cd57600080fd5b5051600354600160a060020a0390811691161461248357600260009054906101000a9004600160a060020a0316600160a060020a03166338cc48316040518163ffffffff1660e060020a028152600401602060405180830381600087803b15801561243757600080fd5b505af115801561244b573d6000803e3d6000fd5b505050506040513d602081101561246157600080fd5b505160038054600160a060020a031916600160a060020a039092169190911790555b600354604080517f2ef3accc0000000000000000000000000000000000000000000000000000000081526024810185905260048101918252855160448201528551600160a060020a0390931692632ef3accc9287928792829160640190602086019080838360005b838110156125035781810151838201526020016124eb565b50505050905090810190601f1680156125305780820380516001836020036101000a031916815260200191505b509350505050602060405180830381600087803b15801561255057600080fd5b505af1158015612564573d6000803e3d6000fd5b505050506040513d602081101561257a57600080fd5b50519392505050565b6002546000908190600160a060020a031615806125b257506002546125b090600160a060020a0316612a3e565b155b156125c3576125c16000612a42565b505b600260009054906101000a9004600160a060020a0316600160a060020a03166338cc48316040518163ffffffff1660e060020a028152600401602060405180830381600087803b15801561261657600080fd5b505af115801561262a573d6000803e3d6000fd5b505050506040513d602081101561264057600080fd5b5051600354600160a060020a039081169116146126f657600260009054906101000a9004600160a060020a0316600160a060020a03166338cc48316040518163ffffffff1660e060020a028152600401602060405180830381600087803b1580156126aa57600080fd5b505af11580156126be573d6000803e3d6000fd5b505050506040513d60208110156126d457600080fd5b505160038054600160a060020a031916600160a060020a039092169190911790555b600354604080517f2ef3accc0000000000000000000000000000000000000000000000000000000081526024810186905260048101918252875160448201528751600160a060020a0390931692632ef3accc9289928892829160640190602086019080838360005b8381101561277657818101518382015260200161275e565b50505050905090810190601f1680156127a35780820380516001836020036101000a031916815260200191505b509350505050602060405180830381600087803b1580156127c357600080fd5b505af11580156127d7573d6000803e3d6000fd5b505050506040513d60208110156127ed57600080fd5b50519050670de0b6b3a76400003a84020181111561280e5760009150612980565b6003546040517fc51be90f00000000000000000000000000000000000000000000000000000000815260006004820181815260648301879052608060248401908152895160848501528951600160a060020a039095169463c51be90f948794938c938c938c93604481019160a49091019060208801908083838c5b838110156128a1578181015183820152602001612889565b50505050905090810190601f1680156128ce5780820380516001836020036101000a031916815260200191505b50838103825285518152855160209182019187019080838360005b838110156129015781810151838201526020016128e9565b50505050905090810190601f16801561292e5780820380516001836020036101000a031916815260200191505b5096505050505050506020604051808303818588803b15801561295057600080fd5b505af1158015612964573d6000803e3d6000fd5b50505050506040513d602081101561297b57600080fd5b505191505b509392505050565b81810182811015610e2457600080fd5b600a54604080517fa51a8682000000000000000000000000000000000000000000000000000000008152600160a060020a038581166004830152602482018590529151919092169163a51a86829160448083019260209291908290030181600087803b158015612a0757600080fd5b505af1158015612a1b573d6000803e3d6000fd5b505050506040513d6020811015612a3157600080fd5b505115156112c957600080fd5b3b90565b6000610e24612e52565b6002546000908190600160a060020a03161580612a7b5750600254612a7990600160a060020a0316612a3e565b155b15612a8c57612a8a6000612a42565b505b600260009054906101000a9004600160a060020a0316600160a060020a03166338cc48316040518163ffffffff1660e060020a028152600401602060405180830381600087803b158015612adf57600080fd5b505af1158015612af3573d6000803e3d6000fd5b505050506040513d6020811015612b0957600080fd5b5051600354600160a060020a03908116911614612bbf57600260009054906101000a9004600160a060020a0316600160a060020a03166338cc48316040518163ffffffff1660e060020a028152600401602060405180830381600087803b158015612b7357600080fd5b505af1158015612b87573d6000803e3d6000fd5b505050506040513d6020811015612b9d57600080fd5b505160038054600160a060020a031916600160a060020a039092169190911790555b600354604080517f2ef3accc0000000000000000000000000000000000000000000000000000000081526024810186905260048101918252875160448201528751600160a060020a0390931692632ef3accc9289928892829160640190602086019080838360005b83811015612c3f578181015183820152602001612c27565b50505050905090810190601f168015612c6c5780820380516001836020036101000a031916815260200191505b509350505050602060405180830381600087803b158015612c8c57600080fd5b505af1158015612ca0573d6000803e3d6000fd5b505050506040513d6020811015612cb657600080fd5b50519050670de0b6b3a76400003a840201811115612cd75760009150612e49565b6003546040517fc51be90f0000000000000000000000000000000000000000000000000000000081526004810188815260648201869052608060248301908152885160848401528851600160a060020a039094169363c51be90f9386938c938c938c938c939291604482019160a40190602088019080838360005b83811015612d6a578181015183820152602001612d52565b50505050905090810190601f168015612d975780820380516001836020036101000a031916815260200191505b50838103825285518152855160209182019187019080838360005b83811015612dca578181015183820152602001612db2565b50505050905090810190601f168015612df75780820380516001836020036101000a031916815260200191505b5096505050505050506020604051808303818588803b158015612e1957600080fd5b505af1158015612e2d573d6000803e3d6000fd5b50505050506040513d6020811015612e4457600080fd5b505191505b50949350505050565b600080612e72731d3b2638a7cc9f2cb3d298a3da7a90b67e5506ed612a3e565b1115612ee35760028054600160a060020a031916731d3b2638a7cc9f2cb3d298a3da7a90b67e5506ed17905560408051808201909152600b81527f6574685f6d61696e6e65740000000000000000000000000000000000000000006020820152612edb9061317a565b506001610d62565b6000612f0273c03a2615d5efaf5f49f60b7bb6583eaec212fdf1612a3e565b1115612f6b5760028054600160a060020a03191673c03a2615d5efaf5f49f60b7bb6583eaec212fdf117905560408051808201909152600c81527f6574685f726f707374656e3300000000000000000000000000000000000000006020820152612edb9061317a565b6000612f8a73b7a07bcf2ba2f2703b24c0691b5278999c59ac7e612a3e565b1115612ff35760028054600160a060020a03191673b7a07bcf2ba2f2703b24c0691b5278999c59ac7e17905560408051808201909152600981527f6574685f6b6f76616e00000000000000000000000000000000000000000000006020820152612edb9061317a565b600061301273146500cfd35b22e4a392fe0adc06de1a1368ed48612a3e565b111561307b5760028054600160a060020a03191673146500cfd35b22e4a392fe0adc06de1a1368ed4817905560408051808201909152600b81527f6574685f72696e6b6562790000000000000000000000000000000000000000006020820152612edb9061317a565b600061309a736f485c8bf6fc43ea212e93bbf8ce046c7f1cb475612a3e565b11156130ce575060028054600160a060020a031916736f485c8bf6fc43ea212e93bbf8ce046c7f1cb4751790556001610d62565b60006130ed7320e12a1f859b3feae5fb2a0a32c18f5a65555bbf612a3e565b1115613121575060028054600160a060020a0319167320e12a1f859b3feae5fb2a0a32c18f5a65555bbf1790556001610d62565b60006131407351efaf4c8b3c9afbd5ab9f4bbc82784ab6ef8faa612a3e565b1115613174575060028054600160a060020a0319167351efaf4c8b3c9afbd5ab9f4bbc82784ab6ef8faa1790556001610d62565b50600090565b80516112c9906005906020840190828054600181600116156101000203166002900490600052602060002090601f016020900481019282601f106131c957805160ff19168380011785556131f6565b828001600101855582156131f6579182015b828111156131f65782518255916020019190600101906131db565b50613202929150613206565b5090565b610d6291905b80821115613202576000815560010161320c560046cb989ef9cef13e930e3b7f286225a086e716a90d63e0b7da85d310a9db0c9aa165627a7a723058207be92304730e373b44474d68fbbf1e95d63e756d6379807153db67355c75f8c40029",
  "source": "pragma solidity  0.4.24;\nimport \"./SafeMath.sol\";\nimport \"./Owned.sol\";\nimport \"./Oraclize.sol\";\nimport \"./StandardToken.sol\";\n\ncontract Synapse {\n\n    function saleTransfer(address,uint256) external returns (bool);\n    function finalize() external returns (bool);\n}\n\ncontract Crowdsale is Owned, usingOraclize { \n  \n  using SafeMath for uint256;\n  uint256 public ethPrice; // 1 Ether price in USD cents.\n  uint256 constant CUSTOM_GASLIMIT = 150000;\n  uint256 public updateTime = 0;\n  // end oraclize variables\n\n  //Oraclize events\n  event LogConstructorInitiated(string nextStep);\n  event newOraclizeQuery(string description);\n  event newPriceTicker(bytes32 myid, string price, bytes proof);\n  // End oraclize events\n\n  // The token being sold\n  Synapse public token;\n\n  uint256 public hardCap = 1800000000;//18 million USD in cents \n  uint256 public softCap = 300000000; //3 million USD in cents. \n\n  uint256 public tokensForSale = 495000000 * 1 ether;//495 million tokens\n\n  uint256 public privateSaletokenSold = 0;\n  uint256 public preSaleTokenSold = 0;\n  uint256 public publicSaleTokenSold = 0;  \n  uint256 public directInvestorsTokenSold = 0;\n\n  //tokens per dollar  \n  uint256 public tokensPerDollarInPrivateSale = 40000000000000000000 ;  \n  uint256 public tokensPerDollarInPublicSale = 20000000000000000000 ;\n  uint256 public tokensPerDollarInPreSale = 28571400000000000000;\n  // Address where funds are collected\n  address public wallet;\n\n  //Sale minimum maximum values\n  uint256 public minimumUsdCentsInPrivateSale = 500000;\n  uint256 public MaximumUsdCentsInPrivateSale = 200000000;\n  uint256 public minimumUsdCentsInPreSale =500000;\n  uint256 public MaximumUsdCentsInPreSale = 200000000;\n  uint256 public minimumUsdCentsInPublicSale = 5000;\n  uint256 public MaximumUsdCentsInPublicSale = 200000000;\n\n  uint256 public discountInPrivateSale = 50;\n  uint256 public discountInPreSale = 30;\n  uint256 public discountInPublicSale = 0;\n  \n  bool public crowdSaleStarted = false;\n\n  // Amount of USD raised in cents\n  uint256 public totalRaisedInCents;\n  \n  enum Stages {CrowdSaleNotStarted, Pause, PrivateSaleStart,PrivateSaleEnd,PreSaleStart,PreSaleEnd,PublicSaleStart,PublicSaleEnd}\n  Stages currentStage;\n  Stages previousStage;\n  bool public Paused;\n\n\n   modifier CrowdsaleStarted(){\n      require(crowdSaleStarted);\n      _;\n   }\n \n    /**\n    * Event for token purchase logging\n    * @param purchaser who paid for the tokens\n    * @param beneficiary who got the tokens\n    * @param value weis paid for purchase\n    * @param amount amount of tokens purchased\n    */\n    event TokenPurchase(address indexed purchaser, address indexed beneficiary, uint256 value, uint256 amount);\n\n    /**\n    *@dev initializes the crowdsale contract \n    * @param _newOwner Address who has special power to change the ether price in cents according to the market price\n    * @param _wallet Address where collected funds will be forwarded to\n    * @param _token Address of the token being sold\n    *  @param _ethPriceInCents ether price in cents\n    */\n    constructor(address _newOwner, address _wallet, Synapse _token,uint256 _ethPriceInCents) Owned(_newOwner) public {\n        require(_wallet != address(0));\n        require(_token != address(0));\n        require(_ethPriceInCents > 0);\n        wallet = _wallet;\n        owner = _newOwner;\n        token = _token;\n        ethPrice = _ethPriceInCents; //ethPrice in cents\n        currentStage = Stages.CrowdSaleNotStarted;\n        // oraclize_setProof(proofType_TLSNotary | proofStorage_IPFS);\n        // LogConstructorInitiated(\"Constructor was initiated. Call 'update()' to send the Oraclize Query.\");\n    }\n    \n    /**\n    * @dev fallback function ***DO NOT OVERRIDE***\n    */\n    function () external payable {\n    \n     if(msg.sender != owner){\n        buyTokens(msg.sender); \n     }\n     else{\n     revert();\n     }\n     \n    }\n\n    // Begin : oraclize related functions \n    function __callback(bytes32 myid, string result, bytes proof) public {\n        if (msg.sender != oraclize_cbAddress()) revert();\n        ethPrice = parseInt(result, 2);\n        emit newPriceTicker(myid, result, proof); //event\n        if (updateTime > 0) updateAfter(updateTime);\n    }\n\n    function update() public onlyOwner {\n        if (updateTime > 0) updateTime = 0;\n        if (oraclize_getPrice(\"URL\", CUSTOM_GASLIMIT) > this.balance) {\n            emit newOraclizeQuery(\"Oraclize query was NOT sent, please add some ETH to cover for the query fee\"); //event\n        } else {\n            emit newOraclizeQuery(\"Oraclize query was sent, standing by for the answer..\"); //event\n            oraclize_query(\"URL\", \"json(https://api.kraken.com/0/public/Ticker?pair=ETHUSD).result.XETHZUSD.c.0\", CUSTOM_GASLIMIT);\n        }\n    }\n\n    function updatePeriodically(uint256 _updateTime) public onlyOwner {\n        updateTime = _updateTime;\n        if (oraclize_getPrice(\"URL\", CUSTOM_GASLIMIT) > this.balance) {\n            emit newOraclizeQuery(\"Oraclize query was NOT sent, please add some ETH to cover for the query fee\");\n        } else {\n            emit newOraclizeQuery(\"Oraclize query was sent, standing by for the answer..\");\n            oraclize_query(\"URL\", \"json(https://api.kraken.com/0/public/Ticker?pair=ETHUSD).result.XETHZUSD.c.0\", CUSTOM_GASLIMIT);\n        }\n    }\n\n    function updateAfter(uint256 _updateTime) internal {\n        if (oraclize_getPrice(\"URL\", CUSTOM_GASLIMIT) > this.balance) {\n            emit newOraclizeQuery(\"Oraclize query was NOT sent, please add some ETH to cover for the query fee\");\n        } else {\n            emit newOraclizeQuery(\"Oraclize query was sent, standing by for the answer..\");\n            oraclize_query(_updateTime, \"URL\", \"json(https://api.kraken.com/0/public/Ticker?pair=ETHUSD).result.XETHZUSD.c.0\", CUSTOM_GASLIMIT);\n        }\n    }\n\n    // END : oraclize related functions \n\n    /**\n    * @dev calling this function will pause the sale\n    */\n    \n    function pause() public onlyOwner {\n      require(Paused == false);\n      require(crowdSaleStarted == true);\n      previousStage=currentStage;\n      currentStage=Stages.Pause;\n      Paused = true;\n    }\n  \n    function restartSale() public onlyOwner {\n      require(currentStage == Stages.Pause);\n      currentStage=previousStage;\n      Paused = false;\n    }\n\n    function startPrivateSale() public onlyOwner {\n      require(!crowdSaleStarted);\n      crowdSaleStarted = true;\n      currentStage = Stages.PrivateSaleStart;\n    }\n\n    function endPrivateSale() public onlyOwner {\n\n      require(currentStage == Stages.PrivateSaleStart);\n      currentStage = Stages.PrivateSaleEnd;\n\n    }\n\n    function startPreSale() public onlyOwner {\n\n    require(currentStage == Stages.PrivateSaleEnd);\n    currentStage = Stages.PreSaleStart;\n   \n    }\n\n    function endPreSale() public onlyOwner {\n\n    require(currentStage == Stages.PreSaleStart);\n    currentStage = Stages.PreSaleEnd;\n   \n    }\n\n    function startPublicSale() public onlyOwner {\n    require(currentStage == Stages.PreSaleEnd);\n    currentStage = Stages.PublicSaleStart;\n    }\n\n    function endPublicSale() public onlyOwner {\n    require(currentStage == Stages.PublicSaleStart);\n    currentStage = Stages.PublicSaleEnd;\n    }\n\n    function getStage() public view returns (string) {\n    if (currentStage == Stages.PrivateSaleStart) return 'Private Sale Start';\n    else if (currentStage == Stages.PrivateSaleEnd) return 'Private Sale End';\n    else if (currentStage == Stages.PreSaleStart) return 'Pre Sale Start';\n    else if (currentStage == Stages.PreSaleEnd) return 'Pre Sale End';\n    else if (currentStage == Stages.PublicSaleStart) return 'Public Sale Start';    \n    else if (currentStage == Stages.PublicSaleEnd) return 'Public Sale End';   \n    else if (currentStage == Stages.Pause) return 'paused';\n    else if (currentStage == Stages.CrowdSaleNotStarted) return 'CrowdSale Not Started';    \n    }\n    \n    function sendDirectInvestorTokens(address _beneficiary,uint256 _noOfTokens,uint256 _usdCents)  CrowdsaleStarted onlyOwner public{\n\n     require(_beneficiary != address(0));\n     require(Paused != true);\n     totalRaisedInCents = totalRaisedInCents.add(_usdCents);\n     require(totalRaisedInCents <= hardCap);\n     uint256 tokens;\n     tokens =  _noOfTokens * 1 ether;\n     directInvestorsTokenSold = directInvestorsTokenSold.add(tokens);\n     require (directInvestorsTokenSold.add(privateSaletokenSold).add(preSaleTokenSold).add(publicSaleTokenSold) <= tokensForSale);\n     require(token.saleTransfer(_beneficiary, tokens),'transfer fail'); \n\n   }    \n\n   /**\n   * @dev sets the value of ether price in cents.Can be called only by the owner account.\n   * @param _ethPriceInCents price in cents .\n   */\n   function setEthPriceInCents(uint _ethPriceInCents) onlyOwner public returns(bool) {\n        ethPrice = _ethPriceInCents;\n        return true;\n    }\n\n   /**\n   * @param _beneficiary Address performing the token purchase\n   */\n   function buyTokens(address _beneficiary) CrowdsaleStarted public payable {\n\n    require(Paused != true);\n    uint256 weiAmount = msg.value;\n    require(weiAmount > 0);    \n    uint256 usdCents = weiAmount.mul(ethPrice).div(1 ether); \n    _preValidatePurchase(usdCents);\n    // calculate token amount to be created\n    uint256 tokens = _getTokenAmount(usdCents);\n    _validateCapLimits(usdCents);\n    _processPurchase(_beneficiary,tokens);\n    wallet.transfer(msg.value);\n    emit TokenPurchase(msg.sender, _beneficiary, weiAmount, tokens);\n   }\n  \n   /**\n   * @dev Validation of an incoming purchase. Use require statemens to revert state when conditions are not met. Use super to concatenate validations.\n   * @param _usdCents Value in usdincents involved in the purchase\n   */\n   function _preValidatePurchase(uint256 _usdCents) internal view { \n\n      if (currentStage == Stages.PrivateSaleStart) {\n\n        require(_usdCents >= minimumUsdCentsInPrivateSale && _usdCents <= MaximumUsdCentsInPrivateSale); \n\n      }\n      else if (currentStage == Stages.PreSaleStart) {\n\n        require(_usdCents >= minimumUsdCentsInPreSale && _usdCents <= MaximumUsdCentsInPreSale); \n\n      }\n      else if (currentStage == Stages.PublicSaleStart) {\n\n        require(_usdCents >= minimumUsdCentsInPublicSale && _usdCents <= MaximumUsdCentsInPublicSale); \n\n      }\n\n    }\n    \n    /**\n    * @dev Validation of the capped restrictions.\n    * @param _cents cents amount\n    */\n\n    function _validateCapLimits(uint256 _cents) internal {\n     \n      totalRaisedInCents = totalRaisedInCents.add(_cents);\n      require(totalRaisedInCents <= hardCap);\n   }\n   \n   /**\n   * @dev Source of tokens. Override this method to modify the way in which the crowdsale ultimately gets and sends its tokens.\n   * @param _beneficiary Address performing the token purchase\n   * @param _tokenAmount Number of tokens to be emitted\n   */\n   function _deliverTokens(address _beneficiary, uint256 _tokenAmount) internal {\n    \n    require(token.saleTransfer(_beneficiary, _tokenAmount));    \n\n   }\n\n   /**\n   * @dev Executed when a purchase has been validated and is ready to be executed. Not necessarily emits/sends tokens.\n   * @param _beneficiary Address receiving the tokens\n   * @param _tokenAmount Number of tokens to be purchased\n   */\n   function _processPurchase(address _beneficiary, uint256 _tokenAmount) internal {\n    _deliverTokens(_beneficiary, _tokenAmount);\n   }\n  \n    /**\n    * @param _usdCents Value in usd cents to be converted into tokens\n    * @return Number of tokens that can be purchased with the specified _usdCents\n    */\n    function _getTokenAmount(uint256 _usdCents) CrowdsaleStarted internal view returns (uint256) {\n    uint256 tokens;\n\n      if (currentStage == Stages.PrivateSaleStart) {\n\n         tokens = _usdCents.div(100).mul(tokensPerDollarInPrivateSale);\n\n      }\n      else if (currentStage == Stages.PreSaleStart) {\n\n         tokens = _usdCents.div(100).mul(tokensPerDollarInPreSale);\n\n      }\n      else if (currentStage == Stages.PublicSaleStart) {\n\n         tokens = _usdCents.div(100).mul(tokensPerDollarInPublicSale);\n\n      }      \n            return tokens;\n    }\n    \n\n    function discountInCurrentSale() public view returns (uint256)\n    {\n\n    if (currentStage == Stages.PrivateSaleStart) \n    return discountInPrivateSale;\n    \n    else if (currentStage == Stages.PreSaleStart) \n    return discountInPreSale;\n    \n    else if (currentStage == Stages.PublicSaleStart)\n    return discountInPublicSale;\n    }\n    \n    function tokenAmount(uint256 _usdCents) CrowdsaleStarted public view returns (uint256) {\n\n    uint256 tokens;\n \n      if (currentStage == Stages.PrivateSaleStart) {\n\n         tokens = _usdCents.div(100).mul(tokensPerDollarInPrivateSale);\n\n      }\n      else if (currentStage == Stages.PreSaleStart) {\n\n         tokens = _usdCents.div(100).mul(tokensPerDollarInPreSale);\n\n      }\n      else if (currentStage == Stages.PublicSaleStart) {\n\n         tokens = _usdCents.div(100).mul(tokensPerDollarInPublicSale);\n\n      }      \n            return tokens;\n}\n    /**\n    * @dev burn the unsold tokens.\n    */\n    function burnTokens() public onlyOwner {\n        require(currentStage == Stages.PublicSaleEnd);\n    StandardToken tokens = StandardToken(token);\n    require(tokens.approve(address(this),0));\n    }\n\n        \n    /**\n    * @dev finalize the crowdsale.After finalizing ,tokens transfer can be done.\n    */\n    function finalizeSale() public  onlyOwner {\n        require(currentStage == Stages.PublicSaleEnd);\n        require(token.finalize());\n        \n    }\n\n    function isSoftCapReached() public view returns(bool){\n        if(totalRaisedInCents >= softCap){\n            return true;\n        }\n        else {\n            return false;\n        }\n    }\n\n    //Usd\n    function minimumInvestmentInCurrentSale() public view returns(uint256)\n    {   \n    if (currentStage == Stages.PrivateSaleStart) \n    return minimumUsdCentsInPrivateSale;\n    \n    else if (currentStage == Stages.PreSaleStart) \n    return minimumUsdCentsInPreSale;\n    \n    else if (currentStage == Stages.PublicSaleStart)\n    return minimumUsdCentsInPublicSale;\n    \n   }\n   \n    function setPriceforAllPhases(uint256 _privateSale,uint256 _preSale, uint256 _publicSale) public onlyOwner {\n    \n       tokensPerDollarInPrivateSale = _privateSale * 1 ether;\n       tokensPerDollarInPreSale = _preSale * 1 ether;\n       tokensPerDollarInPublicSale = _publicSale * 1 ether;\n\n    }   \n   \n   \n   function maximumInvestmentInCurrentSale() public view returns(uint256)\n    {   \n    if (currentStage == Stages.PrivateSaleStart) \n    return MaximumUsdCentsInPrivateSale;\n    \n    else if (currentStage == Stages.PreSaleStart) \n    return MaximumUsdCentsInPreSale;\n    \n    else if (currentStage == Stages.PublicSaleStart)\n    return MaximumUsdCentsInPublicSale;\n    \n}\n\n}\n",
  "sourcePath": "/home/abhi/Desktop/Projects/Synapse/contracts/Crowdsale.sol",
  "compiler": {
    "name": "solc",
    "version": "0.4.24+commit.e67f0147.Emscripten.clang"
  },
  "schemaVersion": "2.0.1",
  "updatedAt": "2019-08-22T07:34:19.132Z"
}