{
  "contractName": "StandardToken",
  "abi": [
    {
      "constant": true,
      "inputs": [],
      "name": "totalSupply",
      "outputs": [
        {
          "name": "",
          "type": "uint256"
        }
      ],
      "payable": false,
      "stateMutability": "view",
      "type": "function"
    },
    {
      "anonymous": false,
      "inputs": [
        {
          "indexed": true,
          "name": "from",
          "type": "address"
        },
        {
          "indexed": true,
          "name": "to",
          "type": "address"
        },
        {
          "indexed": false,
          "name": "value",
          "type": "uint256"
        }
      ],
      "name": "Transfer",
      "type": "event"
    },
    {
      "anonymous": false,
      "inputs": [
        {
          "indexed": true,
          "name": "owner",
          "type": "address"
        },
        {
          "indexed": true,
          "name": "spender",
          "type": "address"
        },
        {
          "indexed": false,
          "name": "value",
          "type": "uint256"
        }
      ],
      "name": "Approval",
      "type": "event"
    },
    {
      "anonymous": false,
      "inputs": [
        {
          "indexed": true,
          "name": "from",
          "type": "address"
        },
        {
          "indexed": false,
          "name": "value",
          "type": "uint256"
        }
      ],
      "name": "Burn",
      "type": "event"
    },
    {
      "anonymous": false,
      "inputs": [
        {
          "indexed": false,
          "name": "saleContract",
          "type": "address"
        },
        {
          "indexed": false,
          "name": "tokensForSale",
          "type": "uint256"
        }
      ],
      "name": "SaleContractActivation",
      "type": "event"
    },
    {
      "constant": true,
      "inputs": [
        {
          "name": "_owner",
          "type": "address"
        }
      ],
      "name": "balanceOf",
      "outputs": [
        {
          "name": "",
          "type": "uint256"
        }
      ],
      "payable": false,
      "stateMutability": "view",
      "type": "function"
    },
    {
      "constant": false,
      "inputs": [
        {
          "name": "_to",
          "type": "address"
        },
        {
          "name": "_value",
          "type": "uint256"
        }
      ],
      "name": "transfer",
      "outputs": [
        {
          "name": "success",
          "type": "bool"
        }
      ],
      "payable": false,
      "stateMutability": "nonpayable",
      "type": "function"
    },
    {
      "constant": false,
      "inputs": [
        {
          "name": "_from",
          "type": "address"
        },
        {
          "name": "_to",
          "type": "address"
        },
        {
          "name": "_value",
          "type": "uint256"
        }
      ],
      "name": "transferFrom",
      "outputs": [
        {
          "name": "",
          "type": "bool"
        }
      ],
      "payable": false,
      "stateMutability": "nonpayable",
      "type": "function"
    },
    {
      "constant": false,
      "inputs": [
        {
          "name": "_spender",
          "type": "address"
        },
        {
          "name": "_value",
          "type": "uint256"
        }
      ],
      "name": "approve",
      "outputs": [
        {
          "name": "",
          "type": "bool"
        }
      ],
      "payable": false,
      "stateMutability": "nonpayable",
      "type": "function"
    },
    {
      "constant": false,
      "inputs": [
        {
          "name": "_spender",
          "type": "address"
        },
        {
          "name": "_oldValue",
          "type": "uint256"
        },
        {
          "name": "_newValue",
          "type": "uint256"
        }
      ],
      "name": "changeApproval",
      "outputs": [
        {
          "name": "success",
          "type": "bool"
        }
      ],
      "payable": false,
      "stateMutability": "nonpayable",
      "type": "function"
    },
    {
      "constant": true,
      "inputs": [
        {
          "name": "_owner",
          "type": "address"
        },
        {
          "name": "_spender",
          "type": "address"
        }
      ],
      "name": "allowance",
      "outputs": [
        {
          "name": "",
          "type": "uint256"
        }
      ],
      "payable": false,
      "stateMutability": "view",
      "type": "function"
    },
    {
      "constant": false,
      "inputs": [
        {
          "name": "_value",
          "type": "uint256"
        }
      ],
      "name": "burn",
      "outputs": [
        {
          "name": "burnSuccess",
          "type": "bool"
        }
      ],
      "payable": false,
      "stateMutability": "nonpayable",
      "type": "function"
    }
  ],
  "bytecode": "0x608060405234801561001057600080fd5b50610719806100206000396000f30060806040526004361061008d5763ffffffff7c0100000000000000000000000000000000000000000000000000000000600035041663095ea7b3811461009257806318160ddd146100ca57806323b872dd146100f157806342966c681461011b57806370a08231146101335780639281cd6514610154578063a9059cbb1461017b578063dd62ed3e1461019f575b600080fd5b34801561009e57600080fd5b506100b6600160a060020a03600435166024356101c6565b604080519115158252519081900360200190f35b3480156100d657600080fd5b506100df610278565b60408051918252519081900360200190f35b3480156100fd57600080fd5b506100b6600160a060020a036004358116906024351660443561027e565b34801561012757600080fd5b506100b66004356103f7565b34801561013f57600080fd5b506100df600160a060020a03600435166104bb565b34801561016057600080fd5b506100b6600160a060020a03600435166024356044356104d6565b34801561018757600080fd5b506100b6600160a060020a036004351660243561057d565b3480156101ab57600080fd5b506100df600160a060020a036004358116906024351661069b565b6000600260443610156101d557fe5b8215806102035750336000908152600160209081526040808320600160a060020a0388168452909152902054155b151561020e57600080fd5b336000818152600160209081526040808320600160a060020a03891680855290835292819020879055805187815290519293927f8c5be1e5ebec7d5bd14f71427d1e84f3dd0314c0f7b2291e5b200ac8c7c3b925929181900390910190a3600191505b5092915050565b60005481565b6000600160a060020a038316151561029557600080fd5b600160a060020a0384166000908152600260205260409020548211156102ba57600080fd5b600160a060020a03841660009081526001602090815260408083203384529091529020548211156102ea57600080fd5b600160a060020a038416600090815260026020526040902054610313908363ffffffff6106c816565b600160a060020a038086166000908152600260205260408082209390935590851681522054610348908363ffffffff6106dd16565b600160a060020a03808516600090815260026020908152604080832094909455918716815260018252828120338252909152205461038c908363ffffffff6106c816565b600160a060020a03808616600081815260016020908152604080832033845282529182902094909455805186815290519287169391927fddf252ad1be2c89b69c2b068fc378daa952ba7f163c4a11628f55a4df523b3ef929181900390910190a35060019392505050565b60008080831161040657600080fd5b3360009081526002602052604090205483111561042257600080fd5b5033600081815260026020526040902054610443908463ffffffff6106c816565b600160a060020a03821660009081526002602052604081209190915554610470908463ffffffff6106c816565b600055604080518481529051600160a060020a038316917fcc16f5dbb4873280815c1ee09dbd06736cffcc184412cf7a71a0fdb75d397ca5919081900360200190a250600192915050565b600160a060020a031660009081526002602052604090205490565b6000600360643610156104e557fe5b336000908152600160209081526040808320600160a060020a0389168452909152902054841461051457600080fd5b336000818152600160209081526040808320600160a060020a038a1680855290835292819020879055805187815290519293927f8c5be1e5ebec7d5bd14f71427d1e84f3dd0314c0f7b2291e5b200ac8c7c3b925929181900390910190a3506001949350505050565b60006002604436101561058c57fe5b3360009081526002602052604090205483118015906105ab5750600083115b80156105dd5750600160a060020a0384166000908152600260205260409020546105db818563ffffffff6106dd16565b115b156106925733600090815260026020526040902054610602908463ffffffff6106c816565b3360009081526002602052604080822092909255600160a060020a03861681522054610634908463ffffffff6106dd16565b600160a060020a0385166000818152600260209081526040918290209390935580518681529051919233927fddf252ad1be2c89b69c2b068fc378daa952ba7f163c4a11628f55a4df523b3ef9281900390910190a360019150610271565b60009150610271565b600160a060020a038083166000908152600160209081526040808320938516835292905220545b92915050565b6000828211156106d757600080fd5b50900390565b818101828110156106c257600080fd00a165627a7a72305820d8185cf45564bbca017287e8f130d34786a63f2b0795575cb47bcfeb5258f2770029",
  "source": "pragma solidity 0.4.24;\n\nimport \"./ERC20.sol\";\nimport \"./SafeMath.sol\";\n\n/**\n * @title Standard ERC20 token\n *\n * @dev Implementation of the basic standard token.\n * @dev https://github.com/ethereum/EIPs/issues/20\n * @dev Based on code by FirstBlood: https://github.com/Firstbloodio/token/blob/master/smart_contract/FirstBloodToken.sol\n */\ncontract StandardToken is ERC20 {\n    using SafeMath for uint256;\n    mapping (address => mapping (address => uint256)) internal allowed;\n    mapping(address => uint256) balances;\n\n  /// @dev Returns number of tokens owned by given address\n  /// @param _owner Address of token owner\n  /// @return Balance of owner\n\n  // it is recommended to define functions which can read the state of blockchain but cannot write in it as view instead of constant\n\n    function balanceOf(address _owner) public view returns (uint256) {\n        return balances[_owner];\n    }\n\n  /// @dev Transfers sender's tokens to a given address. Returns success\n  /// @param _to Address of token receiver\n  /// @param _value Number of tokens to transfer\n  /// @return Was transfer successful?\n\n    function transfer(address _to, uint256 _value) public onlyPayloadSize(2) returns (bool success) {\n        if (balances[msg.sender] >= _value && _value > 0 && balances[_to].add(_value) > balances[_to]) {\n            balances[msg.sender] = balances[msg.sender].sub(_value);\n            balances[_to] = balances[_to].add(_value);\n            emit Transfer(msg.sender, _to, _value); // solhint-disable-line\n            return true;\n        } else {\n            return false;\n        }\n    }\n\n    /// @dev Allows allowed third party to transfer tokens from one address to another. Returns success\n    /// @param _from Address from where tokens are withdrawn\n    /// @param _to Address to where tokens are sent\n    /// @param _value Number of tokens to transfer\n    /// @return Was transfer successful?\n\n    function transferFrom(address _from, address _to, uint256 _value) public returns (bool) {\n        require(_to != address(0));\n        require(_value <= balances[_from]);\n        require(_value <= allowed[_from][msg.sender]);\n\n        balances[_from] = balances[_from].sub(_value);\n        balances[_to] = balances[_to].add(_value);\n        allowed[_from][msg.sender] = allowed[_from][msg.sender].sub(_value);\n        emit Transfer(_from, _to, _value); // solhint-disable-line\n        return true;\n    }\n\n  /**\n   * @dev Approve the passed address to spend the specified amount of tokens on behalf of msg.sender.\n   *\n   * Beware that changing an allowance with this method brings the risk that someone may use both the old\n   * and the new allowance by unfortunate transaction ordering. One possible solution to mitigate this\n   * race condition is to first reduce the spender's allowance to 0 and set the desired value afterwards:\n   * https://github.com/ethereum/EIPs/issues/20#issuecomment-263524729\n   * @param _spender The address which will spend the funds.\n   * @param _value The amount of tokens to be spent.\n   */\n\n\n    function approve(address _spender, uint256 _value) public onlyPayloadSize(2) returns (bool) {\n      // To change the approve amount you first have to reduce the addresses`\n      //  allowance to zero by calling `approve(_spender, 0)` if it is not\n      //  already 0 to mitigate the race condition described here:\n      //  https://github.com/ethereum/EIPs/issues/20#issuecomment-263524729\n\n        require(_value == 0 || (allowed[msg.sender][_spender] == 0));\n        allowed[msg.sender][_spender] = _value;\n        emit Approval(msg.sender, _spender, _value); // solhint-disable-line\n        return true;\n    }\n\n    function changeApproval(address _spender, uint256 _oldValue, uint256 _newValue) public onlyPayloadSize(3) returns (bool success) {\n        require(allowed[msg.sender][_spender] == _oldValue);\n        allowed[msg.sender][_spender] = _newValue;\n        emit Approval(msg.sender, _spender, _newValue); // solhint-disable-line\n        return true;\n    }\n\n  /**\n   * @dev Function to check the amount of tokens that an owner allowed to a spender.\n   * @param _owner address The address which owns the funds.\n   * @param _spender address The address which will spend the funds.\n   * @return A uint256 specifying the amount of tokens still available for the spender.\n   */\n    function allowance(address _owner, address _spender) public view returns (uint256) {\n        return allowed[_owner][_spender];\n    }\n\n /**\n  * @dev Burns a specific amount of tokens.\n  * @param _value The amount of token to be burned.\n  */\n    function burn(uint256 _value) public returns (bool burnSuccess) {\n        require(_value > 0);\n        require(_value <= balances[msg.sender]);\n        // no need to require value <= totalSupply, since that would imply the\n        // sender's balance is greater than the totalSupply, which *should* be an assertion failure\n\n        address burner = msg.sender;\n        balances[burner] = balances[burner].sub(_value);\n        totalSupply = totalSupply.sub(_value);\n        emit Burn(burner, _value); // solhint-disable-line\n        return true;\n    }\n    \n    \n\n}\n",
  "sourcePath": "/home/abhi/Desktop/Projects/Synapse/contracts/StandardToken.sol",
  "compiler": {
    "name": "solc",
    "version": "0.4.24+commit.e67f0147.Emscripten.clang"
  },
  "schemaVersion": "2.0.1",
  "updatedAt": "2019-08-22T07:34:19.507Z"
}